:100000000C9463000C948B000C948B000C948B006C
:100010000C948B000C948B000C948B000C94750347
:100020000C948B000C948B000C948B000C948B0024
:100030000C948B000C948B000C948B000C948B0014
:100040000C942B030C948B000C948B000C948B0061
:100050000C948B000C948B000C948B000C948B00F4
:100060000C948B000C948B000000000023002600F1
:1000700029000200000000240027002A00000000E0
:1000800000250028002B00040404040404040402D6
:100090000202020202030303030303010204081025
:1000A00020408001020408102001020408102000F2
:1000B0000000080002010000030407000000000027
:1000C00000000000D40611241FBECFEFD8E0DEBF31
:1000D000CDBF11E0A0E0B1E0E6EDF1E102C0059096
:1000E0000D92A832B107D9F721E0A8E2B1E001C032
:1000F0001D92AE35B207E1F710E0C3E6D0E004C0D0
:100100002197FE010E94E308C236D107C9F70E9479
:100110003C040C94E9080C94000090E0FC01E155CB
:10012000FF4F2491FC01E556FF4F3491FC01E95744
:10013000FF4FE491EE23C9F0222339F0233001F17F
:10014000A8F4213019F1223029F1F0E0EE0FFF1F61
:10015000E358FF4FA591B4918FB7F894EC916111DA
:1001600026C030953E233C938FBF08952730A9F0D9
:100170002830C9F0243049F7809180008F7D03C07A
:10018000809180008F7780938000DFCF84B58F7758
:1001900084BDDBCF84B58F7DFBCF8091B0008F779E
:1001A0008093B000D2CF8091B0008F7DF9CF3E2BED
:1001B000DACFCF93DF9390E0FC01E556FF4F249117
:1001C00089579F4FFC0184918823D1F090E0880FDC
:1001D000991FFC01ED58FF4FA591B491FC01E35824
:1001E000FF4FC591D49161110EC09FB7F8948C91C7
:1001F000E22FE0958E238C932881E223E8839FBF32
:10020000DF91CF9108958FB7F894EC91E22BEC93A6
:100210008FBFF6CF3FB7F894809142019091430190
:10022000A0914401B091450126B5A89B05C02F3F80
:1002300019F00196A11DB11D3FBFBA2FA92F982F0C
:100240008827BC01CD01620F711D811D911D42E007
:10025000660F771F881F991F4A95D1F708958F92CF
:100260009F92AF92BF92CF92DF92EF92FF924B019B
:100270005C010E940A016B017C010E940A016C1959
:100280007D098E099F09683E734081059105A8F399
:1002900021E0821A9108A108B10888EEC80E83E017
:1002A000D81EE11CF11C81149104A104B10429F7AA
:1002B000FF90EF90DF90CF90BF90AF909F908F9086
:1002C0000895AF92BF92CF92DF92EF92FF920F9379
:1002D0001F93CF93DF936C017B018B01040F151FDC
:1002E000EB015E01AE18BF08C017D10759F0699144
:1002F000D601ED91FC910190F081E02DC6010995A8
:10030000892B79F7C501DF91CF911F910F91FF9054
:10031000EF90DF90CF90BF90AF900895089590E058
:1003200080E00895FC0101900020E9F73197AF01CA
:10033000481B590BBC0186E491E00C9461018F923B
:100340009F92AF92BF920F931F93CF93DF93CDB73E
:10035000DEB7A1970FB6F894DEBF0FBECDBF19A2CE
:10036000423008F44AE08E010F5D1F4F842E912C1D
:10037000B12CA12CA50194010E94C108E62FB9015E
:10038000CA01EA30F4F4E05DD801EE938D01232B2D
:10039000242B252B79F790E080E0109719F0CD0100
:1003A0000E949201A1960FB6F894DEBF0FBECDBF9A
:1003B000DF91CF911F910F91BF90AF909F908F9041
:1003C0000895E95CE1CFCF93DF93EC0160E08E818B
:1003D0000E948D0061E08E810E948D0060E08E8120
:1003E0000E948D008BE891E00197F1F7DF91CF91AA
:1003F0000895CF92DF92EF92FF920F931F93CF93C6
:10040000DF936C017C0187E0E80EF11CD0E0C0E0D6
:10041000062F10E0B8010C2E02C0759567950A945E
:10042000E2F76170F70181917F010E948D002196B2
:10043000C430D10579F7C601DF91CF911F910F919B
:10044000FF90EF90DF90CF900C94E301CF92DF927A
:10045000EF92FF920F931F93CF93DF93EC01F62E51
:10046000642F8C810E948D008D818F3F19F060E098
:100470000E948D000F2D10E08F8584FF25C06E0136
:1004800087E0C80ED11CF12CE12CB8010E2C02C063
:10049000759567950A94E2F76170F60181916F0195
:1004A0000E948D00FFEFEF1AFF0A88E0E816F104C2
:1004B00061F7CE01DF91CF911F910F91FF90EF90E7
:1004C000DF90CF900C94E301B80184E075956795B7
:1004D0008A95E1F7CE010E94F9016F2DCE01DF91DF
:1004E000CF911F910F91FF90EF90DF90CF900C94E0
:1004F000F90140E0682F86E491E00C942602CF9346
:10050000DF93823029F490915501986090935501C2
:100510008093590110925A0180E480935B0180E13D
:1005200080935C0180E580935D0161E080914A01E8
:100530000E94D90080914B018F3F19F061E00E9429
:10054000D90061E080914C010E94D900C6E4D1E05D
:100550009E01265431408091550184FD0BC084E0FA
:1005600090E021962817390744F461E08E810E94BB
:10057000D900EECF88E090E0F4CF8BE39DE00197C7
:10058000F1F760E080914A010E948D0060E0809167
:100590004C010E948D0080914B018F3F19F060E06B
:1005A0000E948D008091550184FD39C063E086E48E
:1005B00091E00E94F901CBE4D6E4CE010197F1F776
:1005C00063E086E491E00E94F9012197F1F763E08E
:1005D00086E491E00E94F90183E592E00197F1F74A
:1005E00062E086E491E00E94F90180915501806209
:1005F0000E94790284E0809356018CE00E94790287
:1006000081E00E9479028BE39FE10197F1F782E09C
:100610008093570186E0DF91CF910C94790280623C
:100620000E9479028BE496E40197F1F780915501DD
:1006300080620E94790283E592E00197F1F7809150
:10064000550180620E947902D0CF41E00E942602CB
:1006500081E090E008951F920F920FB60F9211243F
:100660002F933F938F939F93AF93BF9380913E01BE
:1006700090913F01A0914001B091410130913D0125
:1006800023E0230F2D3758F50196A11DB11D2093AE
:100690003D0180933E0190933F01A0934001B093B0
:1006A00041018091420190914301A0914401B09198
:1006B00045010196A11DB11D809342019093430114
:1006C000A0934401B0934501BF91AF919F918F9149
:1006D0003F912F910F900FBE0F901F90189526E815
:1006E000230F0296A11DB11DD2CF1F920F920FB6FC
:1006F0000F9211242F933F934F935F936F937F93A8
:100700008F939F93AF93BF93EF93FF9380912D01AE
:1007100090912E01A0912F01B0913001892B8A2B4D
:100720008B2BD1F190912801E0912901F0912A01C0
:1007300080818927808380912D0190912E01A09145
:100740002F01B0913001181619061A061B069CF4E9
:1007500080912D0190912E01A0912F01B091300137
:100760000197A109B10980932D0190932E01A093C7
:100770002F01B0933001FF91EF91BF91AF919F9105
:100780008F917F916F915F914F913F912F910F903A
:100790000FBE0F901F90189580910001E2E7F0E0E6
:1007A000E4919FEF90930001E13051F030F0E2309E
:1007B00069F060E00E948D00DECF10926E00F9CFEC
:1007C00090916F009D7F90936F00F3CF9091700098
:1007D0009D7F9093700091E09093B0009091B10054
:1007E000987F94609093B1001092B300E2CFCF92C3
:1007F000DF92EF92FF920F931F93E82FF92F05C01E
:10080000015011092109310961F190819623941752
:10081000B9F305C0015011092109310911F1908185
:1008200096239413F7CFC12CD12CE12CF12C0AC0C4
:100830008FEFC81AD80AE80AF80A0C151D052E050C
:100840003F0579F080818623841791F36C2D7D2DEF
:100850008E2D9F2D1F910F91FF90EF90DF90CF90E5
:10086000089560E070E080E090E01F910F91FF90AC
:10087000EF90DF90CF900895789484B5826084BD26
:1008800084B5816084BD85B5826085BD85B5816094
:1008900085BD80916E00816080936E001092810012
:1008A00080918100826080938100809181008160CD
:1008B000809381008091800081608093800080918E
:1008C000B10084608093B1008091B000816080931A
:1008D000B00080917A00846080937A0080917A00E1
:1008E000826080937A0080917A00816080937A00A0
:1008F00080917A00806880937A001092C10061E054
:1009000084E00E94D90061E083E00E94D90061E0A8
:1009100082E00E94D90061E081E10E94D90061E09B
:1009200082E10E94D90060E083E10E94D90082E068
:100930000E947F028DE091E00E94920148E9242EFE
:1009400040E0342ECCEAD0E050ED852E57E0952ED5
:10095000A12CB12C60E082E10E948D0083E090E048
:100960000197F1F761E082E10E948D0083E290E05F
:100970000197F1F760E082E10E948D00EEEAF0E07D
:100980006491EAE9F0E08491E82FF0E0EE0FFF1FB8
:10099000E859FF4F8591949100E412E42FE030E094
:1009A000462F0E94F703611571058105910529F015
:1009B0006F5F7F4F8F4F9F4F9F700E949A0726E96E
:1009C00033E44BE05DE30E944F0820E030E040E07C
:1009D0005FE30E944F086B017C01C0923901D09205
:1009E0003A01E0923B01F0923C01E1E08091590133
:1009F0008111E0E0E195F0E0EA5BFE4F8489895FD8
:100A000080680E947902A7019601C701B6010E9481
:100A1000BC088823D1F185E191E00E94920181E236
:100A200091E00E949201C0903901D0903A01E0908B
:100A30003B01F0903C0120E030E048EC52E4C7017B
:100A4000B6010E94640787FFB4C061E084E00E94A1
:100A50008D0060E083E00E948D0060E082E00E94F3
:100A60008D006CE271E080E090E00E942F0164EF65
:100A700071E080E090E00E942F01E0E0F0E0EF2BD9
:100A800009F468CF0E94000065CF26013701E89481
:100A900077F82FEF3FEF4FE75FE7C301B2010E9406
:100AA000BC0881110DC02FEF3FEF4FE75FE7C30197
:100AB000B2010E94640718161CF489E191E0ADCFE1
:100AC0002FEF3FEF4FE75FE4C701B6010E944A08EE
:100AD00018161CF48DE191E0A0CF2FEF3FEF4FE708
:100AE0005FECC701B6010E94640787FDF3CF20E0E9
:100AF00030E0A901C701B6010E94640787FF0AC060
:100B000041E06DE286E491E00E942602F7FAF0945B
:100B1000F7F8F0942AE037ED43EA5BE3C701B6014A
:100B20000E94F8062B013C010E9469076B017C01C1
:100B30000E9498079B01AC01C301B2010E94F70615
:100B40002B013C014AE0C701B6010E949F0141E030
:100B50006EE286E491E00E94260220E030E040E26E
:100B600051E4C301B2010E944F082B013C010E94D5
:100B700069076B01F12CE12C4AE0C701B6010E9424
:100B80009F01C701B6010E9498079B01AC01C301F8
:100B9000B2010E94F70620E030E040E251E40E94FA
:100BA0004F080E94690790E080E04AE00E949F01A0
:100BB00036CF20E030E048E453E4C701B6010E949C
:100BC000640760E087FF10C084E00E948D0061E050
:100BD00083E00E948D0060E082E00E948D0068E565
:100BE00072E080E090E041CF84E00E948D0060E000
:100BF00083E00E948D0061E082E00E948D00809180
:100C00000001813131F5E2E7F0E0149117FDBFC03A
:100C100061E081E10E94D900112309F489C01230FA
:100C200009F09AC08091B100887F83608093B10001
:100C300089EF8093B30080922D0190922E01A092B3
:100C40002F01B0923001809170008260809370001B
:100C50009EC08F3F09F09BC081E180930001E2E7D5
:100C6000F0E014911F3F09F492C0113019F150F0D7
:100C7000123009F43CC017FD8AC061E081E10E9496
:100C8000D900CDCF14BC15BC84B5826084BD85B5B8
:100C9000816085BDF1018491E82FF0E0EE0FFF1F28
:100CA000E358FF4F85919491FE01849180932C012C
:100CB00010E0AECF109280001092810080918100F0
:100CC00088608093810080918100816080938100A1
:100CD000F1018491E82FF0E0EE0FFF1FE358FF4F82
:100CE00085919491FE01849180932B0191CF109274
:100CF000B0001092B1008091B00082608093B0008B
:100D00008091B10081608093B100F1018491E82F5E
:100D1000F0E0EE0FFF1FE358FF4F85919491909301
:100D20002A0180932901FE0184918093280170CFCC
:100D300085B5887F836085BD8CE787BD809235014E
:100D400090923601A0923701B092380180916E00E6
:100D5000826080936E001BC01130F1F4809181009D
:100D6000887F8160809381008FE39FE19093890069
:100D7000809388008092310190923201A0923301D9
:100D8000B092340180916F00826080936F006CE4B8
:100D900074E080E090E069CE123021F01111F7CFBD
:100DA0008FE3CBCF8FE345CFE6E4F1E013821282ED
:100DB00085E091E09183808386E084838FEF858353
:100DC00087E0868388E0878389E080878AE081875F
:100DD0008BE082878CE083878DE084878EE0858737
:100DE0008FE0868780E1878781E00C947F025058EE
:100DF000BB27AA270E940F070C9410080E94020824
:100E000038F00E94090820F039F49F3F19F426F4C5
:100E10000C94FF070EF4E095E7FB0C94F907E92F1B
:100E20000E94210858F3BA176207730784079507D1
:100E300020F079F4A6F50C9443080EF4E0950B2EFF
:100E4000BA2FA02D0B01B90190010C01CA01A0011C
:100E50001124FF27591B99F0593F50F4503E68F177
:100E60001A16F040A22F232F342F4427585FF3CFB8
:100E7000469537952795A795F0405395C9F77EF489
:100E80001F16BA0B620B730B840BBAF09150A1F0D2
:100E9000FF0FBB1F661F771F881FC2F70EC0BA0F58
:100EA000621F731F841F48F4879577956795B795E0
:100EB000F7959E3F08F0B0CF9395880F08F09927DB
:100EC000EE0F9795879508950E94D50708F481E065
:100ED00008950E94290888F09F5798F0B92F992704
:100EE000B751B0F0E1F0660F771F881F991F1AF015
:100EF000BA95C9F714C0B13091F00E944308B1E02F
:100F000008950C944308672F782F8827B85F39F02D
:100F1000B93FCCF3869577956795B395D9F73EF4AD
:100F200090958095709561957F4F8F4F9F4F089555
:100F3000E89409C097FB3EF4909580957095619573
:100F40007F4F8F4F9F4F9923A9F0F92F96E9BB2729
:100F50009395F695879577956795B795F111F8CFA5
:100F6000FAF4BB0F11F460FF1BC06F5F7F4F8F4F10
:100F70009F4F16C0882311F096E911C0772321F006
:100F80009EE8872F762F05C0662371F096E8862F9E
:100F900070E060E02AF09A95660F771F881FDAF7F5
:100FA000880F9695879597F90895990F0008550F22
:100FB000AA0BE0E8FEEF16161706E807F907C0F0DF
:100FC00012161306E407F50798F0621B730B840BE7
:100FD000950B39F40A2661F0232B242B252B21F4C1
:100FE00008950A2609F4A140A6958FEF811D811D61
:100FF000089597F99F6780E870E060E008959FEF9B
:1010000080EC089500240A9416161706180609069F
:10101000089500240A94121613061406050608956E
:10102000092E0394000C11F4882352F0BB0F40F4F6
:10103000BF2B11F460FF04C06F5F7F4F8F4F9F4F36
:10104000089557FD9058440F551F59F05F3F71F0B8
:101050004795880F97FB991F61F09F3F79F087951F
:101060000895121613061406551FF2CF4695F1DFA8
:1010700008C0161617061806991FF1CF8695710538
:10108000610508940895E894BB2766277727CB016C
:1010900097F908950E94D50708F48FEF08950E94EC
:1010A00062080C9410080E94020838F00E94090897
:1010B00020F0952311F00C94F9070C94FF071124EC
:1010C0000C9444080E94210870F3959FC1F3950F7A
:1010D00050E0551F629FF001729FBB27F00DB11DBC
:1010E000639FAA27F00DB11DAA1F649F6627B00D4C
:1010F000A11D661F829F2227B00DA11D621F739F35
:10110000B00DA11D621F839FA00D611D221F749F42
:101110003327A00D611D231F849F600D211D822F89
:10112000762F6A2F11249F5750409AF0F1F08823B0
:101130004AF0EE0FFF1FBB1F661F771F881F9150DD
:101140005040A9F79E3F510580F00C94F9070C948C
:1011500044085F3FE4F3983ED4F38695779567950E
:10116000B795F795E7959F5FC1F7FE2B880F911D07
:101170009695879597F908950E94D507880B990B46
:101180000895A1E21A2EAA1BBB1BFD010DC0AA1FC8
:10119000BB1FEE1FFF1FA217B307E407F50720F0E0
:1011A000A21BB30BE40BF50B661F771F881F991F5B
:1011B0001A9469F760957095809590959B01AC01A4
:1011C000BD01CF010895EE0FFF1F0590F491E02DB2
:0611D0000994F894FFCF22
:1011D600FF00000000250361018F018E0144657048
:1011E60074683A20006E616E00696E66006F7666FE
:0811F6000020636D20202000A1
:00000001FF
